:020000040800F2
:1000000098170020D500000807200008D91F000815
:1000100000000000000000000000000000000000E0
:10002000000000000000000000000000CB230008DA
:100030000000000000000000C9230008CD230008D4
:100040000501000805010008050100080501000878
:100050000501000805010008050100080501000868
:100060000501000805010008050100080501000858
:100070000501000805010008050100080501000848
:100080003124000800000000000000000501000805
:100090000000000005010008050100080501000836
:1000A0000000000005010008050100085D290008A6
:1000B0006D2900080000000005010008393700081C
:1000C0000348854600F064F800480047D53700082B
:1000D000981700200C4880F308880C480168090E26
:1000E0000B4A914205D10B480B4901600B480C4962
:1000F00001600C4880470C480047FEE7FEE7FEE73A
:10010000FEE7FEE7FEE7000098170020040000006D
:100110001F00000018100240010000000000014014
:1001200000000000D5230008C100000830B50B46D0
:10013000014600202022012409E00D46D5409D42C1
:1001400005D31D469540491B254695404019154647
:10015000521E002DF1DC30BD03460B439B0703D03C
:1001600009E008C9121F08C0042AFAD203E00B787C
:100170000370401C491C521EF9D270470321001D18
:10018000401E037812021A43491EF9D510467047E3
:10019000064C0125064E05E0E36807CC2B430C3CDA
:1001A00098471034B442F7D3FFF78EFF8C3A00081B
:1001B000AC3A000870B58C180578401C6B075B0FD3
:1001C00001D10378401C2A1106D10278401C03E0BB
:1001D00006780E70401C491C5B1EF9D12B0705D414
:1001E0000023521E0DD40B70491CFAE70378401C03
:1001F000CB1A921C03E01D780D70491C5B1C521E2B
:10020000F9D5A142D8D3002070BD000070B50C46CE
:10021000042829DD154D202802D0212824D112E000
:100220000846FFF7ABFFE1780002000A0906084321
:1002300028602079287160796871A079A8710C48CC
:1002400000F0ECF810E0287820702888000A607030
:100250002868000CA0702868000EE07028792071D2
:1002600068796071A8798871002070BD1400002041
:100270002807002070B50C46042829DD154D2028DC
:1002800002D0212824D112E00846FFF777FFE17859
:100290000002000A09060843286020792871607965
:1002A0006871A079A8710C4800F0B8F810E02878BF
:1002B00020702888000A60702868000CA0702868E8
:1002C000000EE0702879207168796071A8798871D2
:1002D000002070BD140000209807002010B50248CF
:1002E00001F046FC002010BD2807002010B5024890
:1002F00001F03EFC002010BD9807002070B5184C9E
:10030000164820600025A560E560E12025614002D7
:10031000A56160600C206061204601F0B5FC1148C9
:10032000FF2260650132204640300283E5660D49B8
:10033000403801F0CFFD812300220B490B4802F029
:10034000C9FC01220A49094802F0B5FC02F0B6F8DE
:100350002046E03001F045FB002070BD0038014030
:100360002807002028050020940F00208C02002080
:10037000940D002070B5184C164820600025A5602B
:10038000E560E12025614002A56160600C206061AC
:10039000204601F079FCFF2210490132204640300E
:1003A00061650283E566403801F094FD82230022F6
:1003B0000B490C4802F08EFC02220B49094802F05E
:1003C0007AFC02F07BF82046703001F00AFB002036
:1003D00070BD00000044004098070020280600205F
:1003E000941000208C020020940E002010B5098883
:1003F0008AB20146024801F0B3FD002010BD0000A2
:100400002807002010B509888AB20146024801F089
:10041000A7FD002010BD00009807002070B504461D
:1004200001F0A6FB244800250179002901D002290A
:1004300001D0E56002E001214903E1604179002932
:1004400003D0012903D0022904D0256105E003214E
:10045000490201E0012189022161817907291DD02A
:1004600008291BD12169002918D001210903A160A5
:100470000068A56160600C206061204601F004FC0A
:100480000E4920688A1588420D4909D10D484165F9
:10049000014640310A83C56609490AE0A560E7E7DD
:1004A0000848FF31703001310346403341651A83FB
:1004B000C56601F00FFD70BD14000020003801403A
:1004C000940F00202807002010B50468636043687B
:1004D000102B036803D099600068C26010BD9A6059
:1004E0000068C16010BD0000F0B5002806D00146CC
:1004F00020314A780024002A02D002E00120F0BD19
:100500000C7002224A7005682B680B4A86681340FB
:10051000426807693243C6683E4332434669324304
:1005200086693243C66932431A432A6084630120D4
:1005300048700020F0BD00000FC0FFFFF8B5044672
:1005400020300578012D1ED0012505700226467049
:1005500020680768AF4307602046FFF7B5FF2068B3
:100560000168314301602068016804221143016081
:10057000206801680822114301602068016829434E
:1005800001600020F8BD0220F8BD0000F0B5002396
:1005900053E001229A4014460A404DD006685F009D
:1005A0000325BD40AE43AC460660DD08AD002D1806
:1005B0002E6AAE465D07EF0E0F25BD40AE43754671
:1005C0002E6286686546AE4386604568A5434560F1
:1005D000C4686546AC43C4609D081A4CAD002D1933
:1005E000AF689C07260F0F24B440A4463C4009275F
:1005F000FF06B84201D100270AE0134FB84201D1EB
:10060000012705E0114FB84201D1022700E005277C
:10061000B740A74210D1AE686446A643AE600C4C0A
:10062000256895432560656895436560A568954391
:10063000A560E5689543E5605B1C0A46DA40A8D1F1
:10064000F0BD000000000140000400480008004820
:1006500000040140F8B5002389E001249C402A46AB
:10066000A44622407ED04C68022C01D0122C0CD122
:10067000DC08A40027183C6A5D07ED0E0F26AE408B
:10068000B4430E69AE4026433E6205685E00032413
:10069000B4400F79A543BF07BF0FB7402F43076092
:1006A0004D68012D05D0022D03D0112D01D0122D42
:1006B0000ED18568CF68A543B7402F438760476850
:1006C0006546AF430D79ED06ED0F9D403D43456016
:1006D000C568A5438C68B4402C43C4604C68E400F2
:1006E00044D5264CA56901263543A561A4699D081A
:1006F00034400094224CAD002F19BC689D072E0F8A
:100700000F25B540AC430925ED06A84201D10025CF
:100710000AE01C4DA84201D1012505E01A4DA8426E
:1007200001D1022500E00525B5402543BD60174CE9
:1007300025684E689543F60300D515432560656826
:100740004E689543B60300D515436560A5684E68AD
:100750009543F60200D51543A560E5684E689543BC
:10076000B60200E002E000D51543E5605B1C0A68B4
:100770001546DA4000D070E7F8BD000000100240D6
:100780000000014000040048000800480004014047
:1007900001480068704700007800002002480168A6
:1007A000491C0160704700007800002010B5064821
:1007B0000168102211430160002000F007F800F0EA
:1007C00016F8002010BD00000020024010B50446BD
:1007D00000F08CFE7D21C900FFF7A8FC01F0CCF8E9
:1007E00000222146501E00F017F8002010BD70476F
:1007F000C106C90E01208840014908607047000009
:1008000080E100E0C106C90E01208840014908606E
:100810007047000000E100E010B501F0F5FB10BDED
:1008200010B50C0606D54906490E1C24614308186C
:10083000283004E01C2461430818FF30093099B2C5
:10084000002A06D001228272C180190C0181002089
:1008500010BD002282728180F9E71C224A431218DF
:1008600010B5FF30FF300230926BC06902F0E8FB38
:1008700010BD1C224A43121810B5FF30FF32FF3062
:10088000013202309269C06902F035FC10BD0000EF
:10089000F0B54A06520E13461C256A43CC091218BD
:1008A000002C01D0283201E0FF32093204461370D7
:1008B000C909FF345170E134217A01293DD0012169
:1008C0002172957A494B002D4949557837D0002D32
:1008D00005681678AC465BD0B600AD5B6F0404D5F6
:1008E000444F0D403D436746BD5305681678AC46FE
:1008F000B600AD5B6F0605D53C4F0D4040373D431C
:100900006746BD5315780668AF00F55B0D40394961
:100910000D43F553364F117830373D400668890056
:100920001D4375521178334A00688900F13A154029
:100930001D43455200202072F0BD0220F0BD002D65
:1009400005681678AC4610D0B600AD5B6F0605D5CD
:100950000D40264940310D4361468D53056810789E
:10096000234A8100685A30320EE0B600AD5B6F0456
:1009700004D50D401F490D4361468D53056810781D
:100980001C4A8100685AF13A104018436852D1E776
:10099000B600AD5B6F0404D5164F0D403D4367466E
:1009A000BD5305681678AC46B600AD5B6F0605D53D
:1009B0000E4F0D4040373D436746BD5315780768DD
:1009C000AE00BD5B0D40094940310D43BD53094F99
:1009D0001678F13F3D400168B6001D438D531178F4
:1009E000034A890000683032A1E7000080800000DF
:1009F0008F8F000080C00000F0B54B06CA095B0E67
:100A0000002A04D01C225A431218283204E01C2267
:100A10004A431218FF3209320024947013700346BF
:100A2000C909FF335170E133197A01291AD0012124
:100A3000197251781A4C00291178066814D08D006B
:100A4000715B4F0603D52140164C21437153117839
:100A500000688A00124C815A3034214010246140D1
:100A6000202414E00220F0BD8D00715B4F0403D5FB
:100A700021400D4C21437153117800688A000A4CC3
:100A8000815AF13C2140012424036140640061400B
:100A9000044C403C2143815200201872F0BD0000FC
:100AA0008F8F0000C080000080C000004906490E02
:100AB0001C2251430818FF300130008C80B270476F
:100AC000F0B54D066D0E2E461C246543CF092C183B
:100AD000002F01D0283401E0FF3409342670C90901
:100AE00061700146FF31E260E131E3708C46097AC2
:100AF00001290DD0012261460A72E2789349002A49
:100B000008D0012A20D0022A0DD0032A25D111E0D5
:100B10000220F0BD237802689B00D55A0D40FF35B6
:100B2000FF35023504E0237802689B00D55A0D405A
:100B3000D55212E02278036892009D5A0D4003219D
:100B400049026918995208E0237802689B00D55A37
:100B50000D40012189026918D15226780768B50035
:100B60007B5B7B497B4A0B40134333437B53A57A22
:100B7000002D53D02578784E0B400768AD003343E5
:100B80007B53E38850265D0803686D00F65AF6181B
:100B90002378DF0001239B02FB18F552238950269E
:100BA0005D0803686D00F65AF6182378DF005311CC
:100BB000FB18F55263780768002B237875D09D00E9
:100BC0007B5B5E0403D5654E0B4033437B53237838
:100BD00007689D007B5B5E0604D55E4E0B40403689
:100BE00033437B53237805689E00AB5B0B405B4926
:100BF0000B43AB53564E217830363340056889009D
:100C000013436B522178554C00688900F13C234016
:100C100013434352002061460872F0BD6378002BF5
:100C2000A3881FD05D0803685026F65A6D00F61899
:100C30002378DF0001239B02FB18F5522378076815
:100C40009D007B5B5E0604D50B40424940310B435F
:100C50007B53016820783E4C8300C85A30342040D2
:100C6000202440E05D0803685026F65A6D00F6180F
:100C70002378DF003A4BFB18F55203685025ED5AF4
:100C8000374EEB182578B61CED00AD195E19E368F8
:100C90003E2B0BD9DD022D0CDB0601D16D1EADB252
:100CA000AB020125ED032B4307E020E0DD032D0C13
:100CB000DB0701D06D1CADB2AB023380237807682F
:100CC0009D007B5B5E0403D50B4024490B437B53A3
:100CD00001682078214C8300C85AF13C204001244F
:100CE00024036040640060401043C85292E79D00B6
:100CF0007B5B5E0403D5194E0B4033437B53237853
:100D000007689D007B5B5E0604D5124E0B404036A3
:100D100033437B53237805689E00AB5B0B400D4942
:100D200040310B43AB530D4E2178F13E3340012649
:100D300036037340760073400568890013436B5295
:100D40002178034C89000068303460E78F89000007
:100D50008F8F0000808000008081000080C0000034
:100D600004040000F0B54D066D0E1C246C432418DD
:100D7000FF340934636122610022A2616270257030
:100D8000E5681E46AB4201D92B46F21A6261A57A8C
:100D900049060122890DD203002D05680CD050268A
:100DA000765B75192E4E89196D183E2B17D9D9020D
:100DB000090CDF060ED00FE05026765B7619284D21
:100DC0002D1D4919751822E08902114300E089029E
:100DD000298034E0491E89B28902114306E0D90313
:100DE000090CDF0701D0491C89B28902298061788A
:100DF000002902D001291AD021E0016850256D5A3E
:100E00006D182178CE001649091D71186D183E2BFA
:100E100006D9D902090CDB06D6D1491E89B2D3E71F
:100E2000D903090CDA07D2D0491C89B2CFE701688F
:100E30005022525A51182278D20092198B520168CE
:100E40002078084B8200885A184001231B03584021
:100E50005B005840044B184388520020F0BD00004E
:100E6000020400008FBF000080800000F0B5024641
:100E7000FF32E132137A012B0BD001244F06CB094C
:100E80007F0E1472002B06D01C237B431B182833C3
:100E900006E00220F0BD1C234B431B18FF3309332F
:100EA0009C701F70CE095E70012424031025114B25
:100EB000002F0BD04906C90D002E10D004680E4E2D
:100EC000605A304068401843605210E001680B4E91
:100ED00008883040604068401843088007E0056893
:100EE000064E685A303E3040604018436852002039
:100EF0001072F0BD80800000BF8F0000BFBF0000F7
:100F0000F0B506461D464806400E1C2343439C1977
:100F1000E563A263002222640123283463702070F9
:100F2000E0682B46854203D90546181A606100E047
:100F30006261A07A294F002810D022783068920090
:100F4000825C4906890D3B465206C918002A14DA0C
:100F50005022125A10184552228913E0ABB2A288CF
:100F60002169306801F01DFA30685021095A0818CB
:100F70002178C900C91945521FE05022125A101891
:100F80004552E288ABB22169306801F00AFA617813
:100F90001348002902D0012907D00EE022783168D9
:100FA00092008B5A03400F4805E022783168920086
:100FB0008B5A03400C4803438B52207831688200DF
:100FC000074B885A3033184010235840202358408C
:100FD000044B403B184388520020F0BD020400003F
:100FE0008F8F0000C080000080C0000070B50446F4
:100FF000006840308088C00B02D0204601F026F8FF
:1010000020684030818849050AD58188334A1140DB
:101010008180204600F0FAF80021204600F00BF90C
:10102000206840308188490403D581882C4A1140CA
:101030008180206840308188890403D58188294ACD
:10104000114081802068403081880425C90400292E
:1010500010DA0188A9430180BD20216800024031D7
:101060000880204600F0DEF82068403081881E4A63
:1010700011408180206840308188090517D581881A
:101080001A4A1140818020684030018808221143AB
:101090000180206840300188294301802068403069
:1010A0008088C043C00402D5204600F0EEF82068D6
:1010B00040308188890506D581880D4A114081809C
:1010C000204600F0B0F8206840308188C90503D57B
:1010D0008188084A1140818070BD0000FFFB00003C
:1010E000FFBF0000FFDF0000FFEF0000FFF7000080
:1010F000FFFD0000FFFE0000F8B5002704460028B1
:1011000007D02646FF36E136707A0025002802D047
:1011100005E00120F8BD3572204600F03BF80320C1
:10112000707201210BE01C20784302191046203018
:1011300041720772C572556395637F1CD563606801
:10114000B842F0D800200BE01C2242431219FF32B3
:10115000013255721072D57255619561401CD5618E
:1011600062688242F0D820684030018020684030B8
:101170000580206840308580206840300582BF208F
:1011800022680002403210802034257171720020E4
:10119000F8BD000010B51B4C86B061690120400409
:1011A00001436161616901400591A0690121084322
:1011B000A061A069084005901348016810221143FE
:1011C00001600320C00200900220002102910190E2
:1011D00003210490039109206946C006FFF73AFAFB
:1011E000E1690120C0050143E161E169002201409C
:1011F000059106211F20FFF70FFB1F20FFF702FBC1
:1012000006B010BD001002400000014010B5C41D22
:10121000FF34FA340121E06902F05BF8E06902F082
:1012200026F810BD7047FF3010B5FF300230C0699E
:1012300002F040F810BD0246FF32E132137A012B72
:1012400008D001231372002906D02030017100203C
:101250001072704702207047006880214030818101
:10126000F5E710B5872189000A580146FF31ED31B5
:10127000104602F03AF810BD00684030018B0122A0
:10128000D20311430183002070477047F8B504462C
:1012900000683E4DC00352D5E8690026C00007D45F
:1012A000E96928040143E961E969014001260091E7
:1012B00037480168C90510D40168821511430160DF
:1012C000FFF766FA074604E0FFF762FAC01B6428DE
:1012D00024D82F480068C005F6D5286A03273F02A6
:1012E000384020D06168394081421CD0286A2A6A7F
:1012F000B843012109040A432A622A6A8A432A62FE
:101300002862C0070FD0FFF743FA009008E0FFF70C
:101310003FFA0099411A1F48814201D90320F8BDC4
:10132000286A8007F3D5286A6168B84308432862B1
:10133000002E04D0E969012000078143E96120788B
:10134000C00705D0286BA168800880000843286387
:101350002078800605D5286B10218843E168084372
:1013600028632068800305D5286B80218843616944
:10137000084328632088400505D5286B4021884311
:101380002169084328630020F8BD000000100240D6
:101390000070004088130000F8B505464E480E4620
:1013A0000068C007C00FB0420AD24B480168490824
:1013B0004900314301600068C007C00FB04270D1DE
:1013C0002878464C800705D56068F0218843A968D5
:1013D000084360602878C00753D06868012817D098
:1013E000022818D0032819D021688907002958DA63
:1013F00061688908890001436160FFF7C9F969687C
:101400000746012913D002291DD0032927D034E033
:1014100021688903EAE721688901E7E7616BC9036D
:10142000E4E7FFF7B5F9C11B2D48814223D8606876
:101430000007800F0128F4D123E0FFF7A9F9C11BB1
:101440002748814217D860680007800F0228F4D12E
:1014500017E0FFF79DF9C11B214881420BD8606856
:101460000007800F0328F4D10BE0FFF791F9C11BAF
:101470001B48814201D90320F8BD60680007800F36
:10148000F3D115480168C907C90FB1420BD90168EA
:1014900049084900314301600068C007C00FB042ED
:1014A00001D00120F8BD2878400706D560680721E3
:1014B00009028843E9680843606000F02DF861681C
:1014C000084A0906090F515CC84007490860002016
:1014D000FFF77CF90020F8BD002002400010024018
:1014E00088130000723A0008740000200148006868
:1014F00070470000740000200448054900684968EE
:10150000044A4905490F515CC840704774000020E7
:1015100000100240823A000830B516A30FCB89B004
:101520006C460FC417A30FCB0FC41A494A680C208E
:10153000144604401848042C05D0184B082C04D03D
:101540000C2C00D1184609B030BD9402240F6D4612
:101550002C5DC96A04AD0907090FD203695C920FBB
:10156000022A02D0032A00D11846FEF7DFFD6043AD
:10157000E9E7000002030405060708090A0B0C0D41
:101580000E0F10100102030405060708090A0B0CD0
:101590000D0E0F100010024000127A00006CDC02E9
:1015A000FEB504460078F04EF04DC00748D068689C
:1015B0000007800F01281FD068680007800F0228ED
:1015C00004D16868C003800F022815D06168012922
:1015D00019D001208004002901D0052917D02968DD
:1015E000B1432960296881432960606800281BD0C5
:1015F000FFF7CEF8074613E02868800320D560681F
:10160000002876D01CE0286830432860EDE7296880
:1016100001432960F7E7FFF7BBF8C01B642869D8CE
:1016200028688003F7D50BE0FFF7B2F8074604E01F
:10163000FFF7AEF8C01B6428F1D828688003F7D400
:10164000207880073ED568680007800F14D068684E
:101650000007800F022804D16868C003800F0128AA
:101660000AD0E068002828681DD0012108432860BE
:10167000FFF78EF807460BE0286880070BD5E06877
:10168000012836D107E0FFF783F8C01B0228C6D82F
:1016900028688007F7D52868F82188432169C900A0
:1016A000084328600EE0400840002860FFF770F80B
:1016B000074604E0FFF76CF8C01B0228AFD8286883
:1016C0008007F7D42078000724D5E0690028686AED
:1016D00011D0012108436862FFF75AF8074604E079
:1016E000FFF756F8C01B022899D8686A8007F7D51B
:1016F00010E036E1D1E0400840006862FFF748F8AA
:10170000074604E0FFF744F8C01B022887D8686A40
:101710008007F7D4207804274007002861DA0020EA
:101720000190E869C00008D4E969B8060143E9619D
:10173000E96901400120009101908D480168C905C7
:1017400011D40168821511430160FFF721F8009060
:1017500005E0FFF71DF80099401A642897D88448DF
:101760000068C005F5D5A06801280AD0002801D07E
:10177000052811D0286A400840002862286AB8432A
:1017800002E0286A012108432862A068002812D0DC
:10179000FEF7FEFF00900AE0286A38432862F0E76F
:1017A000FEF7F6FF0099411A7248814275D8286AFF
:1017B0008007F5D50DE0FEF7EBFF009006E0FEF7A1
:1017C000E7FF0099411A6B48814266D8286A800772
:1017D000F5D40198002804D0E9690120000781436D
:1017E000E9612078C00635D5606901280CD0401D1C
:1017F000686B24D038436863686B400840006863B6
:10180000FEF7C6FF074622E0686B38436863686BE3
:10181000012108436863FEF7BBFF074604E0FEF7BB
:10182000B7FFC01B022838D8686B8007F7D5686BF4
:10183000F8218843A169C900084368630AE0B843F6
:101840006863F4E7FEF7A4FFC01B022825D8686B85
:101850008007F7D42078800637D568680007800FA6
:10186000032813D068680007800F022804D1686835
:10187000C003800F032809D0206A0028686B16D0A7
:1018800030436863FEF784FF06460CE0686BC003D4
:101890001BD5206A012864D117E05BE0FEF778FFD2
:1018A000801B022856D8686BC003F7D50DE0B04303
:1018B0006863FEF76DFF064604E0FEF769FF801BD4
:1018C000022847D8686BC003F7D4606A002846D066
:1018D00069680907890F022943D0012636060228C4
:1018E000286805D0B0432860FEF752FF044633E075
:1018F000B0432860FEF74CFF074604E0FEF748FFC0
:10190000C01B022826D828688001F7D4E86A216B1A
:10191000000900010843E862A16AE06A08436968B7
:101920007B22D203914308436860286830432860D3
:10193000FEF72EFF044604E0FEF72AFF001B0228F4
:1019400008D828688001F7D509E0FEF721FF001BC1
:10195000022801D90320FEBD28688001F5D40020AB
:10196000FEBD0120FEBD000000000100001002408D
:101970000070004088130000094910B5401E8842DD
:1019800001D9012010BD074C60610321081F00F040
:101990003BFB0020A06107202061002010BD00005B
:1019A000FFFFFF0000E000E07047704770B50400E3
:1019B00005D025462035687E002802D006E00120AB
:1019C00070BD00202876204600F00AF802206876D4
:1019D000211D206800F034FD01206876002070BDD4
:1019E00070470268D36801210B43D3600068026826
:1019F0000A43026000207047704770B504460068D3
:101A000001690025C9438907002915DBC168C9435D
:101A1000890711D4E91E01610120207620688069C0
:101A20008007204602D0FFF7E7FF04E000F096F8B9
:101A3000204600F094F8257620680169C9434907DB
:101A400017D4C168C943490713D40421C9430161AC
:101A500002202076206880698005800F204602D011
:101A6000FFF7CAFF04E000F079F8204600F077F8AD
:101A7000257620680169C943090716D4C168C9439E
:101A8000090712D40821C943016104202076206887
:101A9000C0698007204602D0FFF7AEFF04E000F0E7
:101AA0005DF8204600F05BF8257620680169C9439F
:101AB000C90617D4C168C943C90613D41021C94344
:101AC0000161082020762068C0698005800F2046CB
:101AD00002D0FFF791FF04E000F040F8204600F04C
:101AE0003EF8257620680169C943C90708D1C16855
:101AF000C943C90704D1891E0161204600F030F8AE
:101B000020680169C943090609D4C168C9430906A7
:101B100005D48021C94301612046FFF745FF2068B5
:101B20000169C943490609D4C168C943490605D4B6
:101B30004021C9430161204600F018F8206801697E
:101B4000C943890609D4C168C943890605D420213F
:101B5000C94301612046FFF728FF70BD70477047F9
:101B6000014901200870704700000020704770474D
:101B700070B5040019D02421204660300646417219
:101B80002068016849084900016020680025056057
:101B90002068456020688560204600F0ABF8E56667
:101BA0007572B5723572002070BD012070BD70472E
:101BB00070B504460068C169C90707D00168C90546
:101BC00004D501210162E06E0843E0662068C16926
:101BD00004228B070221002B06DA8368DB0703D07F
:101BE0000162E06E1043E0662068C3695B0706D5BA
:101BF0008368DB0703D00262E06E0843E06620687A
:101C0000C169090707D58168C90704D008210162A5
:101C1000E06E0843E0662068C1692546C9022026B7
:101C20006035002909DA8168490206D5F1030162AD
:101C30006E72AE722046FFF79AFF2068C16989066E
:101C400005D50068800602D5204600F022FD2068F8
:101C5000C169090605D50068000602D5204600F0D6
:101C6000F1FD2068C169490605D50068400602D526
:101C7000204600F001FDE06E002804D06E72AE72C6
:101C80002046FFF794FF70BD70B5040005D02546CF
:101C90006035687A002802D006E0012070BD00207F
:101CA0002872204600F05EF82420687220680168DF
:101CB000490849000160204600F02CFD0128EDD0C4
:101CC000606A002802D0204600F014FC20684168B9
:101CD0000922D20291434160206881682A229143FF
:101CE000816020680168012211430160204600F0F4
:101CF00067FC70BD10B50068174A09241749E4064F
:101D0000904212D1CA68012080030243CA60CA68A7
:101D10008243CA6041112046FEF738FC0121890246
:101D20002046FEF733FC1B2013E00D4A904212D1EF
:101D30000A690120400402430A610A6982430A6178
:101D400004212046FEF722FC08212046FEF71EFC57
:101D50001C20FEF74DFD10BD003801400010024070
:101D600000440040F0B5564B0121026849040125AA
:101D7000544C022787B006469A4244D162690A430E
:101D8000626162690A40059262690A43626162693E
:101D90000A400592A269C9100A43A261A2690A40D9
:101DA00005926169294361616169092029400591B2
:101DB00059150091032103910197029504956946F5
:101DC000C006FEF747FC012200211B20FEF724FD80
:101DD0001B20FEF717FD2015009009206946049589
:101DE000C006FEF737FC394D374828600020686090
:101DF000A86080212861E96068612020A861C00195
:101E0000E861284648E0324B9A4249D162690A4368
:101E1000626162690A40059262690A4362616269AD
:101E20000A400592E2690A43E261E2690A400592CA
:101E300061692943616161690920C907C90F059179
:101E400004210091032103910197029504956946AD
:101E5000C006FEF7FFFB012200211C20FEF7DCFC80
:101E60001C20FEF7CFFC082000900920694604954D
:101E7000C006FEF7EFFB1448144D28303C352860AF
:101E800000206860A86080212861E96068612020E6
:101E9000A861C001E8612846FEF726FB75666E6200
:101EA000E0693843E061E06900223840059005218F
:101EB0001020FEF7B1FC1020FEF7A4FC07B0F0BD27
:101EC000003801400010024030000240B004002001
:101ED00000440040F8B5054604466035A87A20283D
:101EE00034D100290BD0002A09D00123A0681B039C
:101EF000984206D12069002803D1C80701D00120EB
:101F0000F8BD287A012821D0012028725820616567
:101F100002530026E6662220A872636E0C4898627F
:101F2000636E0C48D862636E0B48186313462768CB
:101F30000A4639462431606EFEF700FB206881684E
:101F40004022114381602E720020F8BD0220F8BDAE
:101F5000452600086F2600082126000870477047B4
:101F600030B5034660335C7A202C23D100290BD096
:101F7000002A09D0012584682D03AC4206D10469EA
:101F8000002C03D1CC0701D0012030BD1C7A012CDC
:101F900010D0C164014640310A824A820021C166E4
:101FA00021225A721972006801688022114301606F
:101FB000002030BD022030BD10B5006804498842C1
:101FC00001D1002100E00121024800F03FFE10BDD8
:101FD000003801408C020020FEE770B500231D464A
:101FE0000EE0040F0A2C02D25E00303401E05E00E5
:101FF00037348C555C00641800015B1C6570DBB2E3
:102000009342EED370BD70478307FF22DB0E9A40E8
:102010008907090E994000280BDA0007000F0838DD
:10202000830808489B001818C36993430B43C36196
:102030007047830804489B001B18186890430843A6
:102040001860704700ED00E000E400E0F0B585B0F6
:1020500004460020694688802646203678E19A8921
:1020600017073F0F26D0B9000291425A9A809988EB
:1020700009047DD5BE490A400299425238461C21C6
:1020800048430519FF350935A87A0028206870D023
:1020900029788A00825A52046CD55022125ACB00F9
:1020A000B44912185918515A8905890D00917DD0EB
:1020B000EA88BDE09A89D20627D40188AE4A25462F
:1020C0001140018020685021095A283508182978C4
:1020D000CA00A8495118405A8005800D2064A16BA0
:1020E0000818A06300212046FEF7B7FB30790028CE
:1020F000B4D068690028B1D13079802108432168C3
:10210000403188810020307122E12546FF35028868
:1021100009359A809B881B0519D5098A09182878E2
:10212000C2009448001D1018085A294683059B0DCB
:10213000AB61AA88E431206800F024F920688C4A59
:102140000188114001802046FFF78BF800E16946C5
:1021500089880904D8D58649864F0A4002802068BC
:102160005021095A3F1D09182878C000C01902E003
:1021700085E03DE04FE0085A83059B0DAB6108D038
:10218000AA882969206800F0FDF8A9692869401823
:10219000286100212046FEF76CFB20680146403094
:1021A000008A4018C119E8683E2800E044E00AD9D6
:1021B000C202120CC00601D1521E92B2900201223C
:1021C000D203104306E0C203120CC00701D0521C18
:1021D00092B2900208802168684A08881040012263
:1021E0001203504052005040654A10430880AFE04F
:1021F0005021095A0A182978CB005E49091D59183F
:10220000515A8905890D009121D0AA882969009B1E
:1022100000F0B8F81BE05022CB00125A55491218B2
:10222000091D5918515A8905890D009104D02A8930
:102230002969009B00F0A6F8297820688A004E4B97
:10224000815A803319404E4B403319438152A9695A
:1022500000980818A861296900980A182A616B6912
:10226000002B03D0E9680098814204D929782046E0
:10227000FEF7FFFA03E029782046FEF773FD684673
:102280008088000664D51C204743206802993A4A9A
:10229000415A3D191140029A28358152A87A0028E6
:1022A000206811D029788A00825C52061ED55022FF
:1022B000125AC90012182F480818105A83059B0D8E
:1022C000AB6124D0EA881EE05021095A0918287809
:1022D000C20028481018085A83059B0DAB6121D015
:1022E000AA882969206800F05CF81BE05022125A85
:1022F000C90012181F48001D0818105A83059B0DAD
:10230000AB6104D02A892969206800F04AF828784E
:1023100022688000184B115A80331940174BF13353
:102320001943115220685021095A09182878C2000F
:1023300010481018085A8005800DA86129690A18EC
:102340002A616B692978002B20460DD0FEF7D8FD55
:102350002068014640318A886B469A81120400D574
:102360007DE6002005B0F0BDFEF777FAF0E700004B
:102370008F0F0000020400000F8F00008FBF0000CD
:1023800080800000101801225B1C92025B088018FC
:10239000002B05D002880A80801C891C5B1EF9D1A5
:1023A0007047101801225B1C920210B55B08801860
:1023B000002B08D04A780C78120222430280801C3D
:1023C000891C5B1EF6D110BD7047704710B5FEF733
:1023D000E5F910BD1348016801221143016041680D
:1023E000114A114041600168104A114001600168C2
:1023F000012292049143016041683F2212049143FB
:102400004160C16A09090901C162016BFF22D4322E
:1024100091430163416B4908490041630021816098
:1024200070470000001002400CB8FF08FFFFF6FEE6
:1024300010B50248FFF7E1FA10BD000008080020BF
:10244000F0B50268184B0124A407184D984203D038
:10245000A04201D0A84203D17026B2434E68324355
:10246000134E144F98420AD0A04208D0A84206D07A
:10247000114CA04203D0B04201D0B84204D1032491
:102480002402A243CC68224302608A68C2620A68BE
:102490008262984203D0B04201D0B84201D10969AA
:1024A000016301214161F0BD002C014000040040A6
:1024B00000440140004801400020004010B50A4C93
:1024C000084820603120E060094808490068FDF7AD
:1024D0002DFE401E606000202061A0602046FFF7B6
:1024E00065FA10BD00040040080800201027000015
:1024F0007400002010B5818CC90707D001684A68B4
:1025000001235B049A43836A1A434A60818C8907DA
:1025100007D501684A6801231B049A43C36A1A431A
:102520004A60818C490707D501684A6801239B04EA
:102530009A43036B1A434A60818C090707D50168E7
:102540004A680123DB039A43436B1A434A60818C38
:10255000C90607D50268916801231B039943836B61
:1025600019439160818C890607D501688A68012327
:102570005B039A43C36B1A438A60818C490612D568
:1025800003685A6801210905046C8A4322435A6092
:10259000026C8A4207D10268516803235B059943A4
:1025A000436C19435160818C090607D501684A685C
:1025B0000123DB04806C9A4302434A6010BD000093
:1025C00070B500250446C5660068134988421BD1D2
:1025D0000068124E000708D5012133460022490544
:1025E000204600F062F900280CD1206800684007FE
:1025F0000AD50121334600228905204600F055F90D
:10260000002801D0032070BD202060346072A072C9
:102610002572002070BD000000380140E803000072
:1026200010B5406A0022014640314A834A82202286
:1026300020314A728A72C16E10221143C166FFF7BF
:10264000B6FA10BD10B501460968406A09688906E6
:102650000AD400225A210A5201688A6840239A4308
:102660008A6020226A210A54FFF778FC10BD10B559
:10267000406AFFF774FC10BD10B501680A6840237A
:102680009A430A60202269210A54FFF795FC002032
:1026900010BD70B50246403203466033948B9D7A7C
:1026A0000168222D05D08869082210438861022024
:1026B00070BD012685683603B54202D10569002D3B
:1026C0000CD08D8C416D25404C1C44650D70518B98
:1026D000491E0904090C518308D019E0898C456D05
:1026E00021402980416D891C4165F0E7026814682A
:1026F00020218C43146002681468CD00AC43146040
:10270000026894686408640094609972FFF726FC7C
:10271000002070BDF8B504462369A268E5691A4334
:10272000636910202B43002125681A432B680E464D
:102730003E4F3B4013432B6023685A6803252D030B
:10274000AA43E5682A435A60236AA26925681A43A6
:10275000AB680B273F02BB431343AB60344A256889
:10276000954210D1334A126B9207920F0ED0012A74
:1027700005D0022A05D0032A09D1022007E004204F
:1027800005E0082003E02C4A954200D100200122F8
:10279000E369D203934224D100280CD002280DD043
:1027A000042813D0082817D001260A0912010807A7
:1027B000400F10432FE0FEF79FFE09E061681F4ABB
:1027C00048088018FDF7B2FC81B2EEE7FEF7A4FEE0
:1027D000616840004A08F4E7616801224808120471
:1027E000EFE7002808D0022809D004280BD00828D9
:1027F00014D001263046F8BDFEF77EFE05E0616884
:102800000F4A48080CE0FEF787FE61684A08801806
:10281000FDF78CFC80B22168C860EBE7616848086E
:102820008018FDF783FC80B2E860E3E7F369FFEF0F
:102830000038014000100240004400400024F40031
:1028400000127A006921095C212901D00220704719
:1028500002464032518A002912D0012381681B03AD
:10286000994202D10169002915D0C16C4B1CC36487
:10287000006809780185508A401E50820020704708
:1028800001680A6880239A430A6000680168402250
:1028900011430160F2E7C16C03680988C905C90DDD
:1028A0001985C16C891CC164E5E7F8B51E4615465B
:1028B0000F460446FDF76CFF29462546603500901B
:1028C00000291AD043E0701C17D0002E05D0FDF768
:1028D0005FFF0099401AB0420FD92068026880213A
:1028E0008A43026021680A68202082430A602168C6
:1028F0000B68C20093430B601EE02068C169384634
:102900008843E0D128E0701C21D0002E05D0FDF7CF
:102910003FFF0099401AB04219D92068016880220F
:102920009143016021680A68202082430A6021687F
:102930000A68C3009A430A6021688A6852085200F4
:102940008A606872A872002028720320F8BD20688F
:10295000C16938468843D6D00020F8BD10B502487A
:10296000FFF726F910BD00002807002010B5024827
:10297000FFF71EF910BD000098070020FF30FF3060
:1029800002308069002811D0802211430022812961
:1029900006D0822906D0832902D0842904D101E0FF
:1029A000426501E0803002630020704702207047DA
:1029B000F8B5C51DFF35FA35EF69AC690E4603461B
:1029C000012902D0022E14D109E00A46154900F06F
:1029D00072F93146184600F0C8FBE06409E00A4687
:1029E000114900F068F93146184600F0BEFBA821F5
:1029F0000851A869002813D0012E02D0022E0DD153
:102A000005E03968606CCA6821464C3105E0796898
:102A1000A020CA6821460059A83190470020F8BD7F
:102A20000220F8BD940D0020940E0020F8B5C41DBE
:102A3000FF34FA34054600278121E66900F0F7FAF1
:102A40000121284600F0F3FA8321284600F0EFFA2E
:102A50008221284600F0EBFA0221284600F0E7FA2E
:102A60008421284600F0E3FAA06900280AD03068E3
:102A700040688047706840688047A06900F080FE29
:102A80000020A0613846F8BD70B5FF30FF30134A12
:102A9000023081695268C069FF25002A02D0022AEB
:102AA0000DD019E00368002B16D00C464034207876
:102AB000FF2811D09B686278984725700CE0436826
:102AC000002B09D00C468034207FFF2804D09B685F
:102AD000627F5C3198472577002070BD7C00002024
:102AE0000A21018000487047840000208D21018068
:102AF00000487047200100208D2101800048704768
:102B0000900000208D21018000487047B001002016
:102B100010B50246024903A000F045FA004810BD76
:102B2000940C0020436F6E736F6C6520506F72744D
:102B30000000000010B50246024903A000F033FA7D
:102B4000004810BD940C002050726F6772616D6D6B
:102B5000696E6720506F727400000000F8B5C51DE3
:102B60000446FF35FA35007C0027EE69002849D07D
:102B7000402302228121204600F064FB40230222F0
:102B80000121204600F05EFB4023022282212046E4
:102B900000F058FB402302221146204600F052FB71
:102BA000082303228321204600F04CFB0823032244
:102BB0008421204600F046FBB82000F019FFA861F0
:102BC000002837D005463068006880477068006884
:102BD000804700216965A965284680300646016363
:102BE0004163207C6A6C002826D0402301212046C6
:102BF00000F034FB326A40230221204600F02EFB15
:102C00003846F8BD01235B0202228121204600F0F4
:102C100019FB01235B0202220121204600F012FB76
:102C200001235B0202228221204600F00BFB0123DC
:102C30005B02B0E70127E3E701256D022B46012186
:102C4000204600F00BFB2B46326AD5E710B5432235
:102C5000D2001258002A19D0037C002B09D0002979
:102C600010D08032126A4023022100F0F7FA0020CF
:102C700010BD01235B02002902D08032126AF3E703
:102C8000526C01E0526C40230121EEE7022010BD9E
:102C900070B505460C46082000F0AAFEFF35FF354A
:102CA0000235E861002804D004601034446000203C
:102CB00070BD012070BDFF30FF3002308069012AF5
:102CC00002D0022A02D003E0416401E080300162B8
:102CD00000207047FF30FF3002308069812B02D026
:102CE000822B03D005E00265816402E08030C2627D
:102CF000416200207047000070B50646FF30FF308B
:102D000002300C468569C169284AA0885060237842
:102D100060221A4040D0202A46D1E288002A30D0D2
:102D20001B0613D5002802D0022805D03CE0096814
:102D300060788B68294605E0496860788B68294689
:102D40005C310D469847E28829462AE0002802D0E7
:102D5000022809D028E02846617840300170A17926
:102D60004170E288294608E0284661788030017782
:102D7000A1794177E28829465C31304600F067F856
:102D800012E00028607805D0496800228B6821464F
:102D9000984709E00968F8E760780A2804D10349F0
:102DA0000122304600F06FF8002070BD7C0000204A
:102DB00010B54322D2001258002A24D0536D002BA4
:102DC00005D0B0239B58002B01D0012010BD01235A
:102DD000812902D0822909D013E0516D002910D138
:102DE0005365116D926C8BB2812108E08032116BBA
:102DF000002906D11363918D526A8BB2822100F0B3
:102E0000B5FA002010BD022010BD10B58522920039
:102E1000125852689047002010BD134610B50A465C
:102E2000002100F01BFA002010BD134610B50A4621
:102E3000002100F09BFA002010BD10B5044680214F
:102E400000F082FA0021204600F07EFA10BD10B595
:102E5000FF230324F5331C50C31DF9339A60DA6055
:102E600013460A46002100F0F9F9002010BD10B504
:102E7000FF210522F5310A5000231A46194600F0B9
:102E8000EDF9002010BD10B5FF230224F5331C50CE
:102E900082611346C2610A46002100F067FA0020F1
:102EA00010BD10B5FF210422F5310A5000231A4647
:102EB000194600F05BFA002010BDF8B50D46044637
:102EC0004988FF300A0AFF300230130000F03CFC52
:102ED000084F0509164F4F464C4F0069237C026886
:102EE00018E0217C02264069002905D0C16A6846A5
:102EF00088470146467046E0816AF8E7C9B20B0090
:102F000000F022FC08050C1014181C23263500695B
:102F1000237C42686946184690471DE00069237C7F
:102F20008268F7E70069237CC268F3E70069237CC5
:102F30000269EFE70069227C436902E00069227CB4
:102F4000836969461046984706E04069816B01E055
:102F50004069C16B68468847014614E0217C00291E
:102F600005D14069416BF5E7217C002904D0294651
:102F70002046FFF762FFF8BD4069016B684688474D
:102F8000072201464270684600880028F3D0EA888C
:102F9000002AF0D0824200D90246684602802046CC
:102FA000FFF771FFF8BD70B5002300281CD0044660
:102FB000002502E06D1CEDB2641C2678002EF9D1CC
:102FC0006C00A41C1480CC5403225B1CCA54002443
:102FD0005B1C06E0CA545B1CDAB28C54521CD3B2A0
:102FE000401C0278002AF5D170BD10B5002813D01E
:102FF000C31DFF33FA335C69002C01D000245C61EF
:10300000002900D01961FF210123FD310B5402700A
:1030100000F0B4F8002010BD022010BDFF3010B544
:10302000FF300230006AFDF7E7FC002010BDFF30E2
:1030300010B5FF300230006AFDF72AFC002010BDF9
:10304000FEB50446FF30E51DE130FF35FA35134685
:103050000190002908D068694269002A49D0019886
:10306000007F032843D044E02646FF3681362046C1
:10307000716F1430022934D1C26881680092914284
:1030800007D9891A81608AB219462046FFF7CDFE1A
:1030900013E0406811460746FDF748F8002913D1B0
:1030A0000098874210D3B06F87420DD2002211469C
:1030B0002046FFF7BAFE0020B06700231A461946E3
:1030C000204600F0CBF80CE06869C168002905D003
:1030D0000198007F032801D1204688472046FFF74A
:1030E000C6FE2878012804D10020287001E020467F
:1030F00090470020FEBD70B50546FF35E1352B46F3
:10310000203316460446002907D058698269002AF0
:1031100029D0287F032824D025E0FF21F531E01DA8
:103120000959FD3003291ED18268C1688A420BD932
:10313000511A8160C068814200D301468AB231468B
:103140002046FFF76AFE0EE058690169002904D0A5
:10315000287F032801D1204688472046FFF7A1FE9B
:1031600001E020469047002070BDFF3010B5FF30D1
:103170000230006AFDF79AFC10BD000010B5264928
:10318000244A0A6008224A604022CA6002220A6178
:103190008A60224AD061FF30FF3002300162084667
:1031A000FDF7AAFF0022402311461B48FDF738FB1C
:1031B0008023002219461848FDF732FBC023002265
:1031C00081211548FDF72CFBFF231133002201213B
:1031D0001148FDF725FBFF230133002283210E4810
:1031E000FDF71EFBFF235133002282210A48FDF721
:1031F00017FBFF23A133002202210748FDF710FB34
:10320000FF239133002284210348FDF709FB0020AE
:1032100010BD0000005C0040740A0020740C002007
:10322000FF30CA09FF3049060230490E1C23006AEC
:1032300059430818002A01D0203001E0FF30013046
:10324000807A704710B5FF301C46FF3002301346BD
:10325000006A2246FDF734FC002010BDFF3010B597
:10326000FF300230006AFDF77DFD002010BD70B513
:103270000022044640231146FFF7E4FF4025FF20CB
:10328000113005512B46002280212046FFF7DAFF3E
:10329000FF200121FD3025620155E01DFF30FA308D
:1032A0008169002904D0406921794268204690470D
:1032B000002070BD10B5FF21FD31095C032906D146
:1032C000852189000958C969002900D08847002054
:1032D00010BD017400207047FF3010B5FF30023080
:1032E000006AFDF7A8FF002010BD70B5044641201C
:1032F000C0002018054600F042F82146FF31813118
:103300000122084680304A67C2898A67007AC1066E
:10331000C90E0AD001290DD0022910D0C109C90156
:10332000204600F011F8002070BD2946204600F02C
:1033300090F8F8E72946204600F077F9F3E72946A8
:10334000204600F0FDF8EEE7FF3010B5FF30023008
:10335000006AFDF78BFD002010BDFF3010B5FF3077
:103360000230006AFDF788FF002010BDFF3010B565
:10337000FF300230006AFDF7C3FD002010BD0A785F
:1033800002704A784270CB788A781B02D218428049
:103390004B790A791B02D21882808A79C97909028D
:1033A0005118C180704702460020002904D0FF3226
:1033B000FF320232516170470220704710B58522FA
:1033C000920012580224002A04D012689047002864
:1033D00000D10024204610BD70B50E468978194DE5
:1033E00004462970012904D931462046FFF725FDFE
:1033F00070BD2046FF30E130027F022A15D0032A3B
:10340000F2D1002917D0606888420AD0C1B22046A4
:10341000FFF7FBFC297861602046FFF7CFFF022809
:10342000E2D02046FFF73DFD70BD0029F9D0032210
:1034300061600277F0E70222027720466160FFF7C1
:10344000E4FCEEE78002002010B5FFF786FF0020C5
:1034500010BDF8B500220092C61DFF364C78174605
:10346000FA3632460125203A230000F06DF90A3C75
:10347000564150410906412B2841FFF71EFD5DE0F2
:1034800004468888002818D1C888002815D1887873
:1034900017464606107F760E03280ED0BE773146BB
:1034A0002046FFF719FF2046FFF7FBFC002E02D055
:1034B0000220387742E03D7740E0204618E0FFF7F1
:1034C0008BFF3BE0CB88012B12D1127F022A02D066
:1034D000032A0DD104E0012201460831876013E080
:1034E0000122011D10E0127F022A04D0032A02D01B
:1034F000FFF7A3FC22E0C5607168002901D0032119
:10350000C160014602220C31FFF7BDFC16E0044603
:103510004888012812D1756009E00446107F02280E
:1035200001D00328C9D14888012807D17760706984
:103530008268204690472046FFF7B3FC0098F8BD0C
:10354000F8B504460D462878E61D4006FF360027EC
:103550000979800FFA36012809D06A783046203878
:10356000002A38D0012A1ED0032A3DD106E0706916
:1035700029468268204690470020F8BD007F022837
:1035800017D003282CD16888002806D1002904D040
:10359000802902D02046FFF7D7FE7069294682684D
:1035A0002046904713E0007F022802D0032817D15D
:1035B00004E0002918D080291AD115E06888002875
:1035C00012D1480603D02046FFF728FDE5E7204644
:1035D000FFF767FC08E0007F022807D003280BD024
:1035E00029462046FFF729FC3846F8BD4806FBD09F
:1035F0002046FFF7A9FEF7E7C80904D04806400DAA
:103600000519143504E04806400D0519FF35053548
:103610002046FFF705FE002800D001202860022286
:1036200029462046FFF72FFCDEE770B50446FF3041
:10363000E130007F0D4603280FD1287904280CD8EB
:10364000852080000059826820469047E88800283D
:1036500006D12046FFF725FC02E02046FFF7EDFBF0
:10366000002070BD10B50A46024903A0FFF79BFC7D
:10367000004810BD940C002056435020436F6E66E6
:10368000696700001220088000487047603A00080F
:1036900010B50A46024903A0FFF785FC004810BD9B
:1036A000940C002056435020496E74657266616325
:1036B0006500000004200880004870475C3A00085C
:1036C00010B50A46024903A0FFF76DFC004810BD83
:1036D000940C002041726475696E6F2073726C00E7
:1036E00010B50A46024903A0FFF75DFC004810BD73
:1036F000940C002041726475696E6F205469616E8C
:103700000000000010B51A2008800948046BC16A47
:10371000406B081809D008220649FEF75EFC0549EF
:10372000042210312046FEF758FC0248801E10BDCE
:1037300080F7FF1F5A00002010B50248FDF756FC25
:1037400010BD0000740A002030B47446641E257851
:10375000641CAB4200D21D46635D5B00E31830BCC5
:10376000184702E008C8121F08C1002AFAD17047A2
:103770007047002001E001C1121F002AFBD17047F1
:1037800010B5002823D0124B0022001F196803E057
:10379000814203D80A4649680029F9D1002A0AD093
:1037A0001368841A9C4204D10068181810601046EF
:1037B00002E0506000E01860002907D002680B1A90
:1037C000934203D10B68D21802604968416010BD72
:1037D0008402002098B0FCF7E9FF012000900190DE
:1037E00000040A900001022400250B9009940C9516
:1037F0006846FDF7D5FE200411908020169011A890
:10380000FDF744FD07200DA931C101210DA8109538
:10381000FDF7C2FD00226A496A48FFF7E6FB6A49E4
:103820006848FFF7C0FD69496648FFF731FA654807
:10383000FFF70AFE664F664E6648674C08370290EF
:103840002078002873D02570316864480068B84239
:1038500001D1082214E05E4A1C32904201D180223C
:103860000EE05B4A3032904201D1C21408E0584A5F
:103870004432904202D10122D20301E00122D2045B
:1038800011423AD14068FF220132101A81B26160C0
:10389000A068884231D0884218D911460A1A504986
:1038A00009185048FCF758FCFF20A1680130411A64
:1038B0004C48626808184A49FCF74EFCA0882189E8
:1038C000401AFF30013080B2009008E0091A89B236
:1038D00000914349009A09184248FCF73DFC8123B6
:1038E00040493848009AFFF7F5F981213548FFF73C
:1038F0005FFA002801D16068A06031683A4800682A
:10390000B84201D1082215E0314A1C32904201D15F
:1039100080220FE02E4A3032904201D1C21409E0D9
:103920002B4A4432904203D10122D20302E044E008
:103930000122D204114240D14068FF220132101A04
:1039400080B2E0602169814237D081421CD91046A3
:10395000421A23484118FF3101310298FCF7FCFB61
:10396000FF2021690130411A1E48E2680818FF3023
:103970001E490130FCF7F0FBA089218A401AFF3074
:10398000013080B200900AE0401A80B200901448E2
:10399000009A4118FF3101310298FCF7DDFB8223C8
:1039A0000848009A0299FFF795F982210548FFF728
:1039B000FFF9002801D1E068206130BF40E7000036
:1039C0003C0000208C020020400200201C0000204F
:1039D000000002409410002000000020B0040020ED
:1039E00028050020940F0020EC0400202806002069
:1039F000F0B50B30C108C900144F0026144A0FE07F
:103A000003688B420BD38B4205D95C1A4318456877
:103A100030C3083B00E04368136002C004E0021DAD
:103A200010680028ECD13046002803D138680028FF
:103A300001D00020F0BD064A06481060064A121A5E
:103A4000D208D20044C001203860D7E788020020A5
:103A5000840200209C110020981300200403090414
:103A600012010002EF020140032A5200000201028B
:103A7000030100000000000000000102030406072B
:103A8000080900000000010203040000AC3A00082D
:103A9000000000208C020000B4010008C43B0008B4
:103AA0008C0200200C15000072370008011533C28B
:103AB00001120813FD021B08DD041A0D0413ED03A7
:103AC0001B0875041AED0C1A7504130504140885F7
:103AD000361B08B5041AC1041AE1041305371B0884
:103AE00065081A9104031B1A0393127A32FF130A12
:103AF0000632022A40761409028D13040115C032E1
:103B0000080B2008020202010109041A010911131D
:103B100005241610010524011009010424020205E0
:103B20002406170107058303081B10093133020A15
:103B30001D070501024B2C070581071B080B4139A6
:103B400042DA02425A03424E0203070584426A03E4
:103B5000424A02422A8207091A900A2006902A063F
:103B6000902A40552A8107E9900A2007902A079059
:103B700039422A820729902A07900A10049089DE88
:103B8000E9906AFF901947091A908942E990194211
:103B90004990193BD990135D2B14082D2A1408F96C
:103BA0002C42081A890C137D291B08B104C11AF98B
:103BB000181AED041A05301AE1081A11081A35040A
:043BC000C100000040
:04000005080000C12E
:00000001FF
